{
  "address": "0x99E445583c5a46AaEA4311B4dBaa8488876AfdB2",
  "abi": [
    {
      "inputs": [
        {
          "internalType": "address",
          "name": "priceFeedAddress",
          "type": "address"
        }
      ],
      "stateMutability": "nonpayable",
      "type": "constructor"
    },
    {
      "inputs": [],
      "name": "notOwner",
      "type": "error"
    },
    {
      "inputs": [],
      "name": "PriceFeed",
      "outputs": [
        {
          "internalType": "address",
          "name": "",
          "type": "address"
        }
      ],
      "stateMutability": "view",
      "type": "function"
    },
    {
      "inputs": [
        {
          "internalType": "address",
          "name": "",
          "type": "address"
        }
      ],
      "name": "addMoneyMapping",
      "outputs": [
        {
          "internalType": "uint256",
          "name": "",
          "type": "uint256"
        }
      ],
      "stateMutability": "view",
      "type": "function"
    },
    {
      "inputs": [],
      "name": "fund",
      "outputs": [],
      "stateMutability": "payable",
      "type": "function"
    },
    {
      "inputs": [
        {
          "internalType": "uint256",
          "name": "",
          "type": "uint256"
        }
      ],
      "name": "funders",
      "outputs": [
        {
          "internalType": "address",
          "name": "",
          "type": "address"
        }
      ],
      "stateMutability": "view",
      "type": "function"
    },
    {
      "inputs": [
        {
          "internalType": "uint256",
          "name": "index",
          "type": "uint256"
        }
      ],
      "name": "getFunder",
      "outputs": [
        {
          "internalType": "address",
          "name": "",
          "type": "address"
        }
      ],
      "stateMutability": "view",
      "type": "function"
    },
    {
      "inputs": [],
      "name": "priceFeedReturn",
      "outputs": [
        {
          "internalType": "address",
          "name": "",
          "type": "address"
        }
      ],
      "stateMutability": "view",
      "type": "function"
    },
    {
      "inputs": [],
      "name": "withdraw",
      "outputs": [],
      "stateMutability": "nonpayable",
      "type": "function"
    }
  ],
  "transactionHash": "0x9d3f00fec004e33b8ede770097dc809c3c1f8d10db082e7c5e854b2bdccae659",
  "args": [
    "0xD4a33860578De61DBAbDc8BFdb98FD742fA7028e"
  ],
  "numDeployments": 2,
  "solcInputHash": "48d206b31cb0fa88a3955da2ef0c5ead",
  "bytecode": "0x60a06040526802b5e3af16b188000060005534801561001d57600080fd5b50604051610fe1380380610fe1833981810160405281019061003f9190610161565b80600260006101000a81548173ffffffffffffffffffffffffffffffffffffffff021916908373ffffffffffffffffffffffffffffffffffffffff1602179055503373ffffffffffffffffffffffffffffffffffffffff1660808173ffffffffffffffffffffffffffffffffffffffff1660601b8152505080600460006101000a81548173ffffffffffffffffffffffffffffffffffffffff021916908373ffffffffffffffffffffffffffffffffffffffff1602179055505061018e565b600080fd5b600073ffffffffffffffffffffffffffffffffffffffff82169050919050565b600061012e82610103565b9050919050565b61013e81610123565b811461014957600080fd5b50565b60008151905061015b81610135565b92915050565b600060208284031215610177576101766100fe565b5b60006101858482850161014c565b91505092915050565b60805160601c610e356101ac60003960006101cf0152610e356000f3fe6080604052600436106100705760003560e01c8063b60d42881161004e578063b60d4288146100f4578063d7b4750c146100fe578063dc0d3dff1461013b578063de54b6e71461017857610070565b806308b7fa31146100755780633ccfd60b146100a0578063b1bda17a146100b7575b600080fd5b34801561008157600080fd5b5061008a6101a3565b60405161009791906107c5565b60405180910390f35b3480156100ac57600080fd5b506100b56101cd565b005b3480156100c357600080fd5b506100de60048036038101906100d99190610811565b61040e565b6040516100eb9190610857565b60405180910390f35b6100fc610426565b005b34801561010a57600080fd5b506101256004803603810190610120919061089e565b61055a565b60405161013291906107c5565b60405180910390f35b34801561014757600080fd5b50610162600480360381019061015d919061089e565b6105a2565b60405161016f91906107c5565b60405180910390f35b34801561018457600080fd5b5061018d6105e1565b60405161019a91906107c5565b60405180910390f35b6000600460009054906101000a900473ffffffffffffffffffffffffffffffffffffffff16905090565b7f000000000000000000000000000000000000000000000000000000000000000073ffffffffffffffffffffffffffffffffffffffff163373ffffffffffffffffffffffffffffffffffffffff1614610252576040517f251c9d6300000000000000000000000000000000000000000000000000000000815260040160405180910390fd5b60005b6001805490508110156102fe57600060018281548110610278576102776108cb565b5b9060005260206000200160009054906101000a900473ffffffffffffffffffffffffffffffffffffffff1690506000600360008373ffffffffffffffffffffffffffffffffffffffff1673ffffffffffffffffffffffffffffffffffffffff168152602001908152602001600020819055505080806102f690610929565b915050610255565b50600067ffffffffffffffff81111561031a57610319610972565b5b6040519080825280602002602001820160405280156103485781602001602082028036833780820191505090505b506001908051906020019061035e9291906106dd565b5060003373ffffffffffffffffffffffffffffffffffffffff1647604051610385906109d2565b60006040518083038185875af1925050503d80600081146103c2576040519150601f19603f3d011682016040523d82523d6000602084013e6103c7565b606091505b505090508061040b576040517f08c379a000000000000000000000000000000000000000000000000000000000815260040161040290610a44565b60405180910390fd5b50565b60036020528060005260406000206000915090505481565b60005461045e600260009054906101000a900473ffffffffffffffffffffffffffffffffffffffff163461060790919063ffffffff16565b101561049f576040517f08c379a000000000000000000000000000000000000000000000000000000000815260040161049690610ab0565b60405180910390fd5b6001339080600181540180825580915050600190039060005260206000200160009091909190916101000a81548173ffffffffffffffffffffffffffffffffffffffff021916908373ffffffffffffffffffffffffffffffffffffffff16021790555034600360003373ffffffffffffffffffffffffffffffffffffffff1673ffffffffffffffffffffffffffffffffffffffff16815260200190815260200160002060008282546105519190610ad0565b92505081905550565b6000600182815481106105705761056f6108cb565b5b9060005260206000200160009054906101000a900473ffffffffffffffffffffffffffffffffffffffff169050919050565b600181815481106105b257600080fd5b906000526020600020016000915054906101000a900473ffffffffffffffffffffffffffffffffffffffff1681565b600460009054906101000a900473ffffffffffffffffffffffffffffffffffffffff1681565b6000806106138361063d565b9050670de0b6b3a7640000848261062a9190610b26565b6106349190610baf565b91505092915050565b6000808273ffffffffffffffffffffffffffffffffffffffff1663feaf968c6040518163ffffffff1660e01b815260040160a06040518083038186803b15801561068657600080fd5b505afa15801561069a573d6000803e3d6000fd5b505050506040513d601f19601f820116820180604052508101906106be9190610c6d565b5050509150506402540be400816106d59190610ce8565b915050919050565b828054828255906000526020600020908101928215610756579160200282015b828111156107555782518260006101000a81548173ffffffffffffffffffffffffffffffffffffffff021916908373ffffffffffffffffffffffffffffffffffffffff160217905550916020019190600101906106fd565b5b5090506107639190610767565b5090565b5b80821115610780576000816000905550600101610768565b5090565b600073ffffffffffffffffffffffffffffffffffffffff82169050919050565b60006107af82610784565b9050919050565b6107bf816107a4565b82525050565b60006020820190506107da60008301846107b6565b92915050565b600080fd5b6107ee816107a4565b81146107f957600080fd5b50565b60008135905061080b816107e5565b92915050565b600060208284031215610827576108266107e0565b5b6000610835848285016107fc565b91505092915050565b6000819050919050565b6108518161083e565b82525050565b600060208201905061086c6000830184610848565b92915050565b61087b8161083e565b811461088657600080fd5b50565b60008135905061089881610872565b92915050565b6000602082840312156108b4576108b36107e0565b5b60006108c284828501610889565b91505092915050565b7f4e487b7100000000000000000000000000000000000000000000000000000000600052603260045260246000fd5b7f4e487b7100000000000000000000000000000000000000000000000000000000600052601160045260246000fd5b60006109348261083e565b91507fffffffffffffffffffffffffffffffffffffffffffffffffffffffffffffffff821415610967576109666108fa565b5b600182019050919050565b7f4e487b7100000000000000000000000000000000000000000000000000000000600052604160045260246000fd5b600081905092915050565b50565b60006109bc6000836109a1565b91506109c7826109ac565b600082019050919050565b60006109dd826109af565b9150819050919050565b600082825260208201905092915050565b7f53656e64204661696c6564202100000000000000000000000000000000000000600082015250565b6000610a2e600d836109e7565b9150610a39826109f8565b602082019050919050565b60006020820190508181036000830152610a5d81610a21565b9050919050565b7f446f6e74206861766520656e6f75676820657468000000000000000000000000600082015250565b6000610a9a6014836109e7565b9150610aa582610a64565b602082019050919050565b60006020820190508181036000830152610ac981610a8d565b9050919050565b6000610adb8261083e565b9150610ae68361083e565b9250827fffffffffffffffffffffffffffffffffffffffffffffffffffffffffffffffff03821115610b1b57610b1a6108fa565b5b828201905092915050565b6000610b318261083e565b9150610b3c8361083e565b9250817fffffffffffffffffffffffffffffffffffffffffffffffffffffffffffffffff0483118215151615610b7557610b746108fa565b5b828202905092915050565b7f4e487b7100000000000000000000000000000000000000000000000000000000600052601260045260246000fd5b6000610bba8261083e565b9150610bc58361083e565b925082610bd557610bd4610b80565b5b828204905092915050565b600069ffffffffffffffffffff82169050919050565b610bff81610be0565b8114610c0a57600080fd5b50565b600081519050610c1c81610bf6565b92915050565b6000819050919050565b610c3581610c22565b8114610c4057600080fd5b50565b600081519050610c5281610c2c565b92915050565b600081519050610c6781610872565b92915050565b600080600080600060a08688031215610c8957610c886107e0565b5b6000610c9788828901610c0d565b9550506020610ca888828901610c43565b9450506040610cb988828901610c58565b9350506060610cca88828901610c58565b9250506080610cdb88828901610c0d565b9150509295509295909350565b6000610cf382610c22565b9150610cfe83610c22565b9250827f7fffffffffffffffffffffffffffffffffffffffffffffffffffffffffffffff0482116000841360008413161615610d3d57610d3c6108fa565b5b817f80000000000000000000000000000000000000000000000000000000000000000583126000841260008413161615610d7a57610d796108fa565b5b827f80000000000000000000000000000000000000000000000000000000000000000582126000841360008412161615610db757610db66108fa565b5b827f7fffffffffffffffffffffffffffffffffffffffffffffffffffffffffffffff0582126000841260008412161615610df457610df36108fa565b5b82820290509291505056fea26469706673582212207d1864ba43b41fb13a179b704934dd63c67522f58926038ba02e456dada3a72d64736f6c63430008080033",
  "devdoc": {
    "kind": "dev",
    "methods": {},
    "version": 1
  },
  "userdoc": {
    "kind": "user",
    "methods": {},
    "version": 1
  },
  "storageLayout": {
    "storage": [
      {
        "astId": 60,
        "contract": "contracts/FundMe.sol:FundMe",
        "label": "minUSD",
        "offset": 0,
        "slot": "0",
        "type": "t_uint256"
      },
      {
        "astId": 63,
        "contract": "contracts/FundMe.sol:FundMe",
        "label": "funders",
        "offset": 0,
        "slot": "1",
        "type": "t_array(t_address)dyn_storage"
      },
      {
        "astId": 66,
        "contract": "contracts/FundMe.sol:FundMe",
        "label": "priceFeed",
        "offset": 0,
        "slot": "2",
        "type": "t_contract(AggregatorV3Interface)45"
      },
      {
        "astId": 70,
        "contract": "contracts/FundMe.sol:FundMe",
        "label": "addMoneyMapping",
        "offset": 0,
        "slot": "3",
        "type": "t_mapping(t_address,t_uint256)"
      },
      {
        "astId": 72,
        "contract": "contracts/FundMe.sol:FundMe",
        "label": "priceFeedReturn",
        "offset": 0,
        "slot": "4",
        "type": "t_address"
      }
    ],
    "types": {
      "t_address": {
        "encoding": "inplace",
        "label": "address",
        "numberOfBytes": "20"
      },
      "t_array(t_address)dyn_storage": {
        "base": "t_address",
        "encoding": "dynamic_array",
        "label": "address[]",
        "numberOfBytes": "32"
      },
      "t_contract(AggregatorV3Interface)45": {
        "encoding": "inplace",
        "label": "contract AggregatorV3Interface",
        "numberOfBytes": "20"
      },
      "t_mapping(t_address,t_uint256)": {
        "encoding": "mapping",
        "key": "t_address",
        "label": "mapping(address => uint256)",
        "numberOfBytes": "32",
        "value": "t_uint256"
      },
      "t_uint256": {
        "encoding": "inplace",
        "label": "uint256",
        "numberOfBytes": "32"
      }
    }
  }
}